{
  "_format": "hh-sol-artifact-1",
  "contractName": "Notes",
  "sourceName": "contracts/Notes.sol",
  "abi": [
    {
      "anonymous": false,
      "inputs": [
        {
          "indexed": true,
          "internalType": "address",
          "name": "user",
          "type": "address"
        },
        {
          "indexed": false,
          "internalType": "string",
          "name": "note",
          "type": "string"
        }
      ],
      "name": "NoteStored",
      "type": "event"
    },
    {
      "inputs": [
        {
          "internalType": "address",
          "name": "userAddress",
          "type": "address"
        }
      ],
      "name": "getUserNotesCount",
      "outputs": [
        {
          "internalType": "uint256",
          "name": "",
          "type": "uint256"
        }
      ],
      "stateMutability": "view",
      "type": "function"
    },
    {
      "inputs": [],
      "name": "retrieveNotes",
      "outputs": [
        {
          "internalType": "string[]",
          "name": "",
          "type": "string[]"
        }
      ],
      "stateMutability": "view",
      "type": "function"
    },
    {
      "inputs": [
        {
          "internalType": "string",
          "name": "note",
          "type": "string"
        }
      ],
      "name": "storeNote",
      "outputs": [],
      "stateMutability": "nonpayable",
      "type": "function"
    }
  ],
  "bytecode": "0x608060405234801561001057600080fd5b50610a7c806100206000396000f3fe608060405234801561001057600080fd5b50600436106100415760003560e01c80636a3ff50f1461004657806388b34d3014610076578063a6786fff14610092575b600080fd5b610060600480360381019061005b9190610576565b6100b0565b60405161006d91906105bc565b60405180910390f35b610090600480360381019061008b919061071d565b61016c565b005b61009a61027f565b6040516100a791906108b0565b60405180910390f35b6000806000905060005b600080549050811015610162578373ffffffffffffffffffffffffffffffffffffffff16600082815481106100f2576100f16108d2565b5b906000526020600020906002020160000160009054906101000a900473ffffffffffffffffffffffffffffffffffffffff1673ffffffffffffffffffffffffffffffffffffffff16141561014f57818061014b90610930565b9250505b808061015a90610930565b9150506100ba565b5080915050919050565b600060405180604001604052803373ffffffffffffffffffffffffffffffffffffffff168152602001838152509050600081908060018154018082558091505060019003906000526020600020906002020160009091909190915060008201518160000160006101000a81548173ffffffffffffffffffffffffffffffffffffffff021916908373ffffffffffffffffffffffffffffffffffffffff160217905550602082015181600101908051906020019061022a929190610461565b5050503373ffffffffffffffffffffffffffffffffffffffff167f23d7f750a20883b26f57550a6f566cbca4df7f87f22f8f288113bf21261476c58360405161027391906109c3565b60405180910390a25050565b6060600061028c336100b0565b905060008167ffffffffffffffff8111156102aa576102a96105f2565b5b6040519080825280602002602001820160405280156102dd57816020015b60608152602001906001900390816102c85790505b50905060005b82811015610458573373ffffffffffffffffffffffffffffffffffffffff1660008281548110610316576103156108d2565b5b906000526020600020906002020160000160009054906101000a900473ffffffffffffffffffffffffffffffffffffffff1673ffffffffffffffffffffffffffffffffffffffff16146103785760405180602001604052806000815250610427565b6000818154811061038c5761038b6108d2565b5b906000526020600020906002020160010180546103a890610a14565b80601f01602080910402602001604051908101604052809291908181526020018280546103d490610a14565b80156104215780601f106103f657610100808354040283529160200191610421565b820191906000526020600020905b81548152906001019060200180831161040457829003601f168201915b50505050505b82828151811061043a576104396108d2565b5b6020026020010181905250808061045090610930565b9150506102e3565b50809250505090565b82805461046d90610a14565b90600052602060002090601f01602090048101928261048f57600085556104d6565b82601f106104a857805160ff19168380011785556104d6565b828001600101855582156104d6579182015b828111156104d55782518255916020019190600101906104ba565b5b5090506104e391906104e7565b5090565b5b808211156105005760008160009055506001016104e8565b5090565b6000604051905090565b600080fd5b600080fd5b600073ffffffffffffffffffffffffffffffffffffffff82169050919050565b600061054382610518565b9050919050565b61055381610538565b811461055e57600080fd5b50565b6000813590506105708161054a565b92915050565b60006020828403121561058c5761058b61050e565b5b600061059a84828501610561565b91505092915050565b6000819050919050565b6105b6816105a3565b82525050565b60006020820190506105d160008301846105ad565b92915050565b600080fd5b600080fd5b6000601f19601f8301169050919050565b7f4e487b7100000000000000000000000000000000000000000000000000000000600052604160045260246000fd5b61062a826105e1565b810181811067ffffffffffffffff82111715610649576106486105f2565b5b80604052505050565b600061065c610504565b90506106688282610621565b919050565b600067ffffffffffffffff821115610688576106876105f2565b5b610691826105e1565b9050602081019050919050565b82818337600083830152505050565b60006106c06106bb8461066d565b610652565b9050828152602081018484840111156106dc576106db6105dc565b5b6106e784828561069e565b509392505050565b600082601f830112610704576107036105d7565b5b81356107148482602086016106ad565b91505092915050565b6000602082840312156107335761073261050e565b5b600082013567ffffffffffffffff81111561075157610750610513565b5b61075d848285016106ef565b91505092915050565b600081519050919050565b600082825260208201905092915050565b6000819050602082019050919050565b600081519050919050565b600082825260208201905092915050565b60005b838110156107cc5780820151818401526020810190506107b1565b838111156107db576000848401525b50505050565b60006107ec82610792565b6107f6818561079d565b93506108068185602086016107ae565b61080f816105e1565b840191505092915050565b600061082683836107e1565b905092915050565b6000602082019050919050565b600061084682610766565b6108508185610771565b93508360208202850161086285610782565b8060005b8581101561089e578484038952815161087f858261081a565b945061088a8361082e565b925060208a01995050600181019050610866565b50829750879550505050505092915050565b600060208201905081810360008301526108ca818461083b565b905092915050565b7f4e487b7100000000000000000000000000000000000000000000000000000000600052603260045260246000fd5b7f4e487b7100000000000000000000000000000000000000000000000000000000600052601160045260246000fd5b600061093b826105a3565b91507fffffffffffffffffffffffffffffffffffffffffffffffffffffffffffffffff82141561096e5761096d610901565b5b600182019050919050565b600082825260208201905092915050565b600061099582610792565b61099f8185610979565b93506109af8185602086016107ae565b6109b8816105e1565b840191505092915050565b600060208201905081810360008301526109dd818461098a565b905092915050565b7f4e487b7100000000000000000000000000000000000000000000000000000000600052602260045260246000fd5b60006002820490506001821680610a2c57607f821691505b60208210811415610a4057610a3f6109e5565b5b5091905056fea264697066735822122007617d703f8b2d050dacea2180b7bbd1cb4623115cfa89eac80d2d9560057ef264736f6c63430008090033",
  "linkReferences": {},
  "deployedLinkReferences": {}
}